:100126003F065B4F666D7D077F6F777C395E797121
:0101360000C8
:03014200010810A1
:0B013700EF1FAC0670011E4C70F6229A
:10008F00E4F50975900FE590640F60777FE87E03C4
:10009F00120137E590640F606A75900FAF90EF24EF
:1000AF00F5601024FE601114601324077012E4F53C
:1000BF0008800D7508018008750802800375080314
:1000CF007590F0AF90EF2450601124E0601124F090
:1000DF00601124707013850808800E7404800674F4
:1000EF00088002740C2508F508C3E509648094B2F2
:1000FF005011E59064F0600B7FE87E031201370525
:03010F000980E67E
:0101120022CA
:10011300C2A2C2A3C2A412008FE50890012693F5E0
:030123008080F3E6
:03000000020003F8
:0C000300787FE4F6D8FD75810902004A00
:10000F00020113E493A3F8E493A34003F68001F2F3
:10001F0008DFF48029E493A3F85407240CC8C333F2
:10002F00C4540F4420C8834004F456800146F6DFC1
:10003F00E4800B0102040810204080900142E47E0E
:10004F00019360BCA3FF543F30E509541FFEE493B6
:10005F00A360010ECF54C025E060A840B8E493A37D
:10006F00FAE493A3F8E493A3C8C582C8CAC583CAA8
:10007F00F0A3C8C582C8CAC583CADFE9DEE780BE60
:0101450000B9
:00000001FF
