:100107001108204B41492054554F205A4845205645
:100117003220001119202048656C6C6F20576F72D0
:060127006C6421202000A1
:1000D10012012EE4F52A7408252AF8E6FF120158C8
:1000E100052AE52AC3941040ED7FC012014CE4F5C6
:1000F1002A7419252AF8E6FF120158052AE52AC3B0
:06010100941040ED80FEA9
:10008F00C2A58B807F017E001200B8D2A77F057EAC
:10009F00001200B8C2A7EBC454F0F5807F017E00B8
:0900AF001200B8D2A77F057E0003
:1000B800D3EF9400EE9400400F7DC77C01DCFEDD99
:0800C800FAEF1F70EB1E80E847
:0100D000220D
:0C014C00AB07C2A7C2A612008FC2A722F8
:0C015800AB07C2A7D2A612008FC2A722DC
:10012E007F3212014C7F2812014C7F0C12014C7F42
:0E013E000612014C7F0112014C7F8002014C21
:03000000020003F8
:0C000300787FE4F6D8FD75812A02004ADF
:10000F000200D1E493A3F8E493A34003F68001F236
:10001F0008DFF48029E493A3F85407240CC8C333F2
:10002F00C4540F4420C8834004F456800146F6DFC1
:10003F00E4800B0102040810204080900107E47E49
:10004F00019360BCA3FF543F30E509541FFEE493B6
:10005F00A360010ECF54C025E060A840B8E493A37D
:10006F00FAE493A3F8E493A3C8C582C8CAC583CAA8
:10007F00F0A3C8C582C8CAC583CADFE9DEE780BE60
:01012D0000D1
:00000001FF
