:10034F00100A3F065B4F666D7D077F6F777C395EC6
:02035F007971B2
:0B037200EF1FAC0670011E4C70F6225D
:10029F00E4F51A75900FE590640F60777FE87E03A1
:1002AF00120372E590640F606A75900FAF90EF24A0
:1002BF00F5601024FE601114601324077012750985
:1002CF0001800D7509028008750903800375090403
:1002DF007590F0AF90EF2450601124E0601124F07E
:1002EF00601124707013850909800E7404800674E0
:1002FF00088002740C2509F509C3E51A648094B2CD
:10030F005011E59064F0600B7FE87E0312037205D5
:03031F001A80E65B
:0103220022B8
:10000E007BC87A00E509B4011BE4F509850A80EB8B
:10001E001BAE0270011A4E600BB2957F7C7E0112F0
:10002E00037280EBE509B4021BE4F509850B80EB46
:10003E001BAE0270011A4E600BB2957F557E0112F7
:10004E00037280EBE509B4031BE4F509850C80EB24
:10005E001BAE0270011A4E600BB2957F2F7E0112FD
:10006E00037280EBE509B4041BE4F509850D80EB02
:10007E001BAE0270011A4E600BB2957F1E7E0112EE
:10008E00037280EBE509B4051BE4F509850E80EBE0
:10009E001BAE0270011A4E600BB2957FFF7E0012EE
:1000AE00037280EBE509B4061BE4F509850F80EBBE
:1000BE001BAE0270011A4E600BB2957FE37E0012EA
:1000CE00037280EBE509B4071BE4F509851080EB9C
:1000DE001BAE0270011A4E600BB2957FCB7E0012E2
:1000EE00037280EBE509B4081BE4F509851180EB7A
:1000FE001BAE0270011A4E600BB2957FBF7E0012CE
:10010E00037280EBE509B4091BE4F509851280EB57
:10011E001BAE0270011A4E600BB2957FAA7E0012C2
:10012E00037280EBE509B40A1BE4F509851380EB35
:10013E001BAE0270011A4E600BB2957F987E0012B4
:10014E00037280EBE509B40B1BE4F509851480EB13
:10015E001BAE0270011A4E600BB2957F8F7E00129D
:10016E00037280EBE509B40C1BE4F509851580EBF1
:10017E001BAE0270011A4E600BB2957F807E00128C
:10018E00037280EBE509B40D1BE4F509851680EBCF
:10019E001BAE0270011A4E600BB2957F727E00127A
:1001AE00037280EBE509B40E1BE4F509851780EBAD
:1001BE001BAE0270011A4E600BB2957F657E001267
:1001CE00037280EBE509B40F1BE4F509851880EB8B
:1001DE001BAE0270011A4E600BB2957F607E00124C
:1001EE00037280EBE509B4101BE4F509851980EB69
:1001FE001BAE0270011A4E600BB2957F557E001237
:04020E00037280EB0C
:0102120022C9
:10036200758901758CFC758A18D28CD2A9D2AF22FC
:0500030012036280FE03
:03000B00020323CA
:10032300C0E0C0D075D000C002C003C004C006C086
:1003330007758CFC758A1812029F12000ED007D025
:0C03430006D004D003D002D0D0D0E032AD
:03000000020213E6
:0C021300787FE4F6D8FD75811A02025ACB
:10021F00020003E493A3F8E493A34003F68001F2F2
:10022F0008DFF48029E493A3F85407240CC8C333E0
:10023F00C4540F4420C8834004F456800146F6DFAF
:10024F00E4800B010204081020408090034FE47EED
:10025F00019360BCA3FF543F30E509541FFEE493A4
:10026F00A360010ECF54C025E060A840B8E493A36B
:10027F00FAE493A3F8E493A3C8C582C8CAC583CA96
:10028F00F0A3C8C582C8CAC583CADFE9DEE780BE4E
:01036100009B
:00000001FF
