:100003007FBFDFEFF7FBFDFE00003E4141413E00B5
:1000130000000000217F010000002745454539000D
:10002300000022494949360000000C14247F0400D3
:100033000000725151514E0000003E4949492600CB
:1000430000004040404F70000000364949493600E7
:080053000000324949493E005A
:0B00DF00EF1FAC0670011E4C70F622F3
:1000AD00C2B6C2B5E4FEEFC4131313540124FF927C
:1000BD00B4EF25E0FFD2B60000C2B60EBE08E7D2FF
:0500CD00B50000C2B502
:0100D200220B
:10005B00E4FBFAE4FDE4FF1200ADED90000393F531
:10006B0080E50875F008A4240BF582E43400F583D1
:10007B00E5822DF582E43583F583E493FF1200AD21
:10008B007FC87E001200DF0DBD08CA0BBB00010A42
:10009B00EB64324A70BD0508E508B40AB3E4F50811
:0200AB0080AE25
:030000000200D328
:0C00D300787FE4F6D8FD75810802005B20
:00000001FF
