:100493007F381204F97F0C1204F97F061204F97FE6
:0904A300011204F97F800204F942
:10046900C2A58F807F017E0012047AD2A77F057E04
:010479000082
:10047A00D3EF9400EE9400400F7DC77C01DCFEDDD3
:08048A00FAEF1F70EB1E80E881
:010492002247
:0A04F900C2A7C2A6120469C2A7221E
:0A050300C2A7D2A6120469C2A72203
:1002C100510002202020202020202020202020203A
:1002D1002020200051001433313530313034393091
:1002E1003420575558494E005100252020202053D5
:1002F100746F707065642120202020005100362029
:1003010020446972312020537065656431202000DA
:100311005100472020446972312020537065656483
:10032100322020005100582020446972322020538D
:100331007065656431202000510069202044697294
:100341003220205370656564322020004100132D56
:1003510041007C0042007A00C842000000FA4200DD
:030361007D00C854
:100006001204E2E4900086F0900086E0FFC39410AC
:10001600501774142FF582E43400F583E0FF1205BF
:1000260003900086E004F080DF1203F1D2A420B52D
:100036000BC2A49000137434F030B5FD20A23E200C
:10004600B30DC2A49000137439F020B33080FB20A6
:10005600B70DC2A49000137435F020B72080FB20A2
:10006600B60DC2A49000137430F020B61080FB20A9
:10007600B40BC2A49000137433F030B4FD90001397
:10008600E024D0700302012324FD700302013C2406
:10009600FE606424FC603A24056003020156B2A2A5
:1000A60030A20B1203F1E490007CF0020156C2A3C9
:1000B60090007AE0FFA3E090007DCFF0A3EFF07B05
:1000C600017A0079361203F790007C7401F0020180
:1000D60056900000E0FFA3E090007DCF20A30CF037
:1000E600A3EFF07B017A0079478062F0A3EFF07B03
:1000F600017A007969805690007AE0FFA3E09000CB
:100106007DCF20A30CF0A3EFF07B017A0079368037
:100116003CF0A3EFF07B017A0079588030C2A390BF
:10012600007AE0FFA3E090007DCFF0A3EFF07B0123
:100136007A0079368017D2A390007AE0FFA3E09088
:10014600007DCFF0A3EFF07B017A0079581203F718
:10015600900013742DF020A23A20A311C2A19000A2
:100166007DE0FEA3E0FF1204D7D2A1800FD2A190BA
:10017600007DE0FEA3E0FF1204D7C2A190007DE05F
:10018600FEA3E0FFC374F49FFF74019EFE1204D722
:10019600020032A2A3B392A17FF47E011204D70219
:0201A600003225
:0C04E20012049312050D1204EE0204AC8B
:1004AC00C2A27FC87E001204D7D2A2D2A37FC87E7C
:0704BC00001204D7C2A322C5
:0603F1007B017A00792572
:0B03F700900087EBF0A3EAF0A3E9F010
:100402007FC01204F9E490008AF090008AE0FFC3F2
:100412009410501F900087E0FBA3E0FAA3E0F98F4D
:100422008275830012043CFF12050390008AE004E7
:0A043200F080D77F647E0002047A98
:1004C3003031323334353637383941424344454687
:09050D00D288D2A8D2AFD2B222EA
:0404D3007F017E0027
:0B04D700EF1FAC0670011E4C70F622F7
:030003000201A84F
:1001A800C0E0C083C082C0D075D000C001C002C00A
:0901B80003C004C005C006C00725
:1001C10090007FE4F07FBC7E021204D730B20302BC
:1001D10002AA7BE87A0320B213D3EB9400EA9400DD
:1001E100400A1204D3EB1B70ED1A80EA20B203021D
:1001F100028B7A017BF430B213D3EB9400EA9400C2
:10020100400A1204D3EB1B70ED1A80EAE4FDE4F915
:100211007A007B3C20B213D3EB9400EA9400400AAD
:100221001204D3EB1B70ED1A80EA7A017BF430B231
:1002310023D3EB9400EA9400401A7F0A7E00120453
:10024100D790007FE004F0EB1B70011AE0D3941EFD
:1002510040DC805574802DF582E43400F583E0C3E1
:1002610013F090007FE0C39408400E74802DF58256
:10027100E43400F583E04480F090007FE4F009E984
:100281006408708C0DED64047084900082E0540F5A
:100291009004C393900013F090007CE0700B9000E9
:0902A10013E064346003742DF0D5
:1002AA00D007D006D005D004D003D002D001D0D0D8
:0702BA00D082D083D0E032B6
:0B04EE00D2B3D2B7D2B6D2B4D2B5223E
:0300000002036593
:0C036500787FE4F6D8FD7581070203AC38
:10043C00BB010CE58229F582E5833AF583E0225075
:10044C0006E92582F8E622BBFE06E92582F8E222BF
:0D045C00E58229F582E5833AF583E49322D9
:10037100020006E493A3F8E493A34003F68001F29C
:1003810008DFF48029E493A3F85407240CC8C3338D
:10039100C4540F4420C8834004F456800146F6DF5C
:1003A100E4800B01020408102040809002C1E47E29
:1003B100019360BCA3FF543F30E509541FFEE49351
:1003C100A360010ECF54C025E060A840B8E493A318
:1003D100FAE493A3F8E493A3C8C582C8CAC583CA43
:1003E100F0A3C8C582C8CAC583CADFE9DEE780BEFB
:010364000098
:00000001FF
