:10010900C2A58B807F017E00120132D2A77F057EB6
:1001190000120132C2A7EBC454F0F5807F017E00C2
:09012900120132D2A77F057E000D
:10013200D3EF9400EE9400400F7DC77C01DCFEDD1E
:08014200FAEF1F70EB1E80E8CC
:01014A002292
:0C019000AB07C2A7C2A6120109C2A72239
:0C019C00AB07C2A7D2A6120109C2A7221D
:100172007F321201907F281201907F0C1201907F32
:0E018200061201907F011201907F8002019011
:10014B00110833313530313034393034205755586C
:10015B00494E001119202048656C6C6F20576F7247
:06016B006C64212020005D
:10008F00120172E4F52A7408252AF8E6FF12019C82
:10009F00052AE52AC3941040ED7FC0120190E4F5C4
:1000AF002A7419252AF8E6FF12019C052AE52AC3AE
:1000BF00941040ED7FD07E071201327FC012019065
:1000CF00E4F52A7408252AF8E6FF12019C052AE5B3
:1000DF002AC3941040ED7FD07E071201327FC012E9
:1000EF000190E4F52A7419252AF8E6FF12019C0500
:0A00FF002AE52AC3941040ED80FEAC
:03000000020003F8
:0C000300787FE4F6D8FD75812A02004ADF
:10000F0002008FE493A3F8E493A34003F68001F278
:10001F0008DFF48029E493A3F85407240CC8C333F2
:10002F00C4540F4420C8834004F456800146F6DFC1
:10003F00E4800B010204081020408090014BE47E05
:10004F00019360BCA3FF543F30E509541FFEE493B6
:10005F00A360010ECF54C025E060A840B8E493A37D
:10006F00FAE493A3F8E493A3C8C582C8CAC583CAA8
:10007F00F0A3C8C582C8CAC583CADFE9DEE780BE60
:01017100008D
:00000001FF
