:1001DC00C2A58F807F017E001201EDD2A77F057E24
:0101EC000012
:1001ED00D3EF9400EE9400400F7DC77C01DCFEDD63
:0801FD00FAEF1F70EB1E80E811
:0102050022D6
:0A026600C2A7C2A61201DCC2A72243
:0A027000C2A7D2A61201DCC2A72229
:10022D007F381202667F0C1202667F061202667F0D
:09023D00011202667F80020266D4
:1002060011083331353031303439303420575558B0
:10021600494E001119202048656C6C6F20576F728B
:060226006C6421202000A1
:1001770012022DE4F53A7408253AF8E6FF120270E8
:10018700053AE53AC3941040EDE53B601D7FC01288
:100197000266E4F53A7408253AF8E6FF120270059C
:1001A7003AE53AC3941040ED801B7FC0120266E423
:1001B700F53A7419253AF8E6FF120270053AE53A5E
:1001C700C3941040ED7FE87E031201EDC3740195DF
:0501D7003BF53B80B484
:100246003F065B4F666D7D077F6F777C395E797100
:010256007631
:040257007F017E00A5
:0B025B00EF1FAC0670011E4C70F62275
:03000300020006F2
:10000600C0E0C0D075D000C000C002C003C004C0AC
:0500160005C006C00753
:10001B00752A007FBC7E0212025B30B2030200D84D
:10002B007BE87A0320B213D3EB9400EA9400400AE6
:10003B00120257EB1B70ED1A80EA20B2030200D8B4
:10004B007A017BF430B213D3EB9400EA9400400AAC
:10005B00120257EB1B70ED1A80EAE4FD7539007A3A
:10006B00007B3C20B213D3EB9400EA9400400A12BD
:10007B000257EB1B70ED1A80EA7A017BF430B22049
:10008B00D3EB9400EA940040177F0A7E0012025BC8
:10009B00052AEB1B70011AE52AD3941E40DF802D35
:1000AB00742B2DF8C000E6C313D000F6E52AC394D9
:1000BB00084008742B2DF8E64480F6752A000539A4
:0D00CB00E539C3940840980DED6404708F72
:1000D800D007D006D005D004D003D002D000D0D0AD
:0300E800D0E03233
:09027A00D288D2A8D2AFD2B22280
:030000000200EB10
:0C00EB00787FE4F6D8FD75813B020132FD
:1000F700020177E493A3F8E493A34003F68001F2A7
:1001070008DFF48029E493A3F85407240CC8C33309
:10011700C4540F4420C8834004F456800146F6DFD8
:10012700E4800B0102040810204080900206E47E60
:10013700019360BCA3FF543F30E509541FFEE493CD
:10014700A360010ECF54C025E060A840B8E493A394
:10015700FAE493A3F8E493A3C8C582C8CAC583CABF
:10016700F0A3C8C582C8CAC583CADFE9DEE780BE77
:01022C0000D1
:00000001FF
