:10046A007F381204D07F0C1204D07F061204D07F8A
:09047A00011204D07F800204D0BD
:10044000C2A58F807F017E00120451D2A77F057E56
:0104500000AB
:10045100D3EF9400EE9400400F7DC77C01DCFEDDFC
:08046100FAEF1F70EB1E80E8AA
:010469002270
:0A04D000C2A7C2A6120440C2A72270
:0A04DA00C2A7D2A6120440C2A72256
:1002A2005100022020202020202020202020202059
:1002B20020202000510014333135303130343930B0
:1002C2003420575558494E005100252020202053F4
:1002D200746F707065642120202020005100362048
:1002E20020446972312020537065656431202000FA
:1002F20051004720204469723120205370656564A3
:1003020032202000510058202044697232202053AC
:1003120070656564312020005100692020446972B3
:100322003220205370656564322020004100132D75
:0F03320042007A00C842000000FA42007C00C876
:100006001204B9E4900085F0900085E0FFC39410D7
:10001600501774142FF582E43400F583E0FF1204C0
:10002600DA900085E004F080DF7B017A0079251202
:1000360003CED2A420B50BC2A49000137434F030C2
:10004600B5FD20A23E20B30DC2A49000137439F072
:1000560020B33080FB20B70DC2A49000137435F096
:1000660020B72080FB20B60DC2A49000137430F098
:1000760020B61080FB20B40BC2A49000137433F09A
:1000860030B4FD900013E024D0700302011924FD62
:10009600700302013024FE605624FC602C240560A7
:1000A60003020148B2A230A2097B017A0079250237
:1000B6000145C2A390007AE0FFA3E0A3CFF0A3EF2F
:1000C600F07B017A0079368076900000E0FFA3E0AD
:1000D60090007CCF20A30CF0A3EFF07B017A00798F
:1000E60047805CF0A3EFF07B017A0079698050903D
:1000F600007AE0FFA3E0A3CF20A30CF0A3EFF07BF0
:10010600017A0079368038F0A3EFF07B017A007926
:1001160058802CC2A390007AE0FFA3E0A3CFF0A3FF
:10012600EFF07B017A0079368015D2A390007AE051
:10013600FFA3E0A3CFF0A3EFF07B017A007958127A
:1001460003CE900013742DF020A23A20A311C2A171
:1001560090007CE0FEA3E0FF1204AED2A1800FD295
:10016600A190007CE0FEA3E0FF1204AEC2A19000C5
:100176007CE0FEA3E0FFC374F49FFF74019EFE12B1
:1001860004AE020038A2A3B392A17FF47E0112044A
:04019600AE0200387D
:0C04B90012046A1204E41204C502048359
:10048300C2A27FC87E001204AED2A2D2A37FC87ECE
:07049300001204AEC2A32217
:0B03CE00900086EBF0A3EAF0A3E9F03A
:1003D9007FC01204D0E4900089F0900089E0FFC347
:1003E9009410501F900086E0FBA3E0FAA3E0F98F78
:1003F90082758300120413FF1204DA900089E00465
:0A040900F080D77F647E00020451EA
:10049A0030313233343536373839414243444546B0
:0904E400D288D2A8D2AFD2B22214
:0404AA007F017E0050
:0B04AE00EF1FAC0670011E4C70F62220
:0300030002019A5D
:10019A00C0E0C083C082C0D075D000C001C002C018
:0901AA0003C004C005C006C00733
:1001B30090007EE4F07FBC7E021204AE30B20302F4
:1001C300028B7BE87A0320B213D3EB9400EA94000A
:1001D300400A1204AAEB1B70ED1A80EA20B2030254
:1001E300027D7A017BF430B213D3EB9400EA9400DE
:1001F300400A1204AAEB1B70ED1A80EAE4FDE4F94D
:100203007A007B3C20B213D3EB9400EA9400400ABB
:100213001204AAEB1B70ED1A80EA7A017BF430B268
:1002230023D3EB9400EA9400401A7F0A7E00120461
:10023300AE90007EE004F0EB1B70011AE0D3941E35
:1002430040DC8044747F2DF582E43400F583E0C301
:1002530013F090007EE0C39408400E747F2DF58266
:10026300E43400F583E04480F090007EE4F009E993
:100273006408708C0DED64047084900081E0540F69
:0802830090049A93900013F01F
:10028B00D007D006D005D004D003D002D001D0D0F7
:07029B00D082D083D0E032D5
:0B04C500D2B3D2B7D2B6D2B4D2B52267
:03000000020342B6
:0C034200787FE4F6D8FD7581070203897E
:10041300BB010CE58229F582E5833AF583E022509E
:1004230006E92582F8E622BBFE06E92582F8E222E8
:0D043300E58229F582E5833AF583E4932202
:10034E00020006E493A3F8E493A34003F68001F2BF
:10035E0008DFF48029E493A3F85407240CC8C333B0
:10036E00C4540F4420C8834004F456800146F6DF7F
:10037E00E4800B01020408102040809002A2E47E6B
:10038E00019360BCA3FF543F30E509541FFEE49374
:10039E00A360010ECF54C025E060A840B8E493A33B
:1003AE00FAE493A3F8E493A3C8C582C8CAC583CA66
:1003BE00F0A3C8C582C8CAC583CADFE9DEE780BE1E
:0103410000BB
:00000001FF
