:100246007F3812027E7F0C12027E7F0612027E7FAC
:090256000112027E7F8002027E8B
:1001F500C2A58F807F017E00120206D2A77F057EF1
:0102050000F8
:10020600D3EF9400EE9400400F7DC77C01DCFEDD49
:08021600FAEF1F70EB1E80E8F7
:01021E0022BD
:0A027E00C2A7C2A61201F5C2A72212
:0A028800C2A7D2A61201F5C2A722F8
:10021F001108333135303130343930342057555897
:10022F00494E001119202048656C6C6F20576F7272
:06023F006C642120200088
:10018900120246120292E4F53374082533F8E6FFA9
:100199001202880533E533C3941040EDD2A4E5314A
:1001A900643070247FC012027EE4F533740825336D
:1001B900F8E6FF1202880533E533C3941040ED7F5A
:1001C900647E0012020680D47FC012027EE4F533F9
:1001D90074192533F8E6FF1202880533E533C39411
:0C01E9001040ED7F647E0012020680B022
:10025F0030313233343536373839414243444546ED
:09029200D288D2A8D2AFD2B22268
:04026F007F017E008D
:0B027300EF1FAC0670011E4C70F6225D
:03000300020006F2
:10000600C0E0C083C082C0D075D000C000C002C0AE
:0900160003C004C005C006C007C8
:10001F00752A007FBC7E0212027330B2030200E623
:10002F007BE87A0320B213D3EB9400EA9400400AE2
:10003F0012026FEB1B70ED1A80EA20B2030200DC94
:10004F007A017BF430B213D3EB9400EA9400400AA8
:10005F0012026FEB1B70ED1A80EAE4FD7532007A25
:10006F00007B3C20B213D3EB9400EA9400400A12B9
:10007F00026FEB1B70ED1A80EA7A017BF430B2202D
:10008F00D3EB9400EA940040177F0A7E00120273AC
:10009F00052AEB1B70011AE52AD3941E40DF803727
:1000AF00742B2DF8C000E6C313D000F6E52AC394D5
:1000BF00084008742B2DF8E64480F6752A000532A7
:1000CF00E532C3940840980DED6404708FE52D540C
:0700DF000F90025F93F53161
:1000E600D007D006D005D004D003D002D000D0D09F
:0700F600D082D083D0E0327C
:030000000200FDFE
:0C00FD00787FE4F6D8FD758133020144E1
:10010900020189E493A3F8E493A34003F68001F282
:1001190008DFF48029E493A3F85407240CC8C333F7
:10012900C4540F4420C8834004F456800146F6DFC6
:10013900E4800B010204081020408090021FE47E35
:10014900019360BCA3FF543F30E509541FFEE493BB
:10015900A360010ECF54C025E060A840B8E493A382
:10016900FAE493A3F8E493A3C8C582C8CAC583CAAD
:10017900F0A3C8C582C8CAC583CADFE9DEE780BE65
:0102450000B8
:00000001FF
