:100244007F3812027C7F0C12027C7F0612027C7FB4
:090254000112027C7F8002027C91
:1001F300C2A58F807F017E00120204D2A77F057EF5
:0102030000FA
:10020400D3EF9400EE9400400F7DC77C01DCFEDD4B
:08021400FAEF1F70EB1E80E8F9
:01021C0022BF
:0A027C00C2A7C2A61201F3C2A72216
:0A028600C2A7D2A61201F3C2A722FC
:10021D001108333135303130343930342057555899
:10022D00494E001119202048656C6C6F20576F7274
:06023D006C64212020008A
:10018900120244120290E4F53374082533F8E6FFAD
:100199001202860533E533C3941040EDE53164302E
:1001A90060247FC012027CE4F53374082533F8E635
:1001B900FF1202860533E533C3941040ED7FE87ED4
:1001C9000312020480D67FC012027CE4F53374194D
:1001D9002533F8E6FF1202860533E533C394104050
:0A01E900ED7FE87E0312020480B2ED
:10025D0030313233343536373839414243444546EF
:09029000D288D2A8D2AFD2B2226A
:04026D007F017E008F
:0B027100EF1FAC0670011E4C70F6225F
:03000300020006F2
:10000600C0E0C083C082C0D075D000C000C002C0AE
:0900160003C004C005C006C007C8
:10001F00752A007FBC7E0212027130B2030200E625
:10002F007BE87A0320B213D3EB9400EA9400400AE2
:10003F0012026DEB1B70ED1A80EA20B2030200DC96
:10004F007A017BF430B213D3EB9400EA9400400AA8
:10005F0012026DEB1B70ED1A80EAE4FD7532007A27
:10006F00007B3C20B213D3EB9400EA9400400A12B9
:10007F00026DEB1B70ED1A80EA7A017BF430B2202F
:10008F00D3EB9400EA940040177F0A7E00120271AE
:10009F00052AEB1B70011AE52AD3941E40DF803727
:1000AF00742B2DF8C000E6C313D000F6E52AC394D5
:1000BF00084008742B2DF8E64480F6752A000532A7
:1000CF00E532C3940840980DED6404708FE52D540C
:0700DF000F90025D93F53163
:1000E600D007D006D005D004D003D002D000D0D09F
:0700F600D082D083D0E0327C
:030000000200FDFE
:0C00FD00787FE4F6D8FD758133020144E1
:10010900020189E493A3F8E493A34003F68001F282
:1001190008DFF48029E493A3F85407240CC8C333F7
:10012900C4540F4420C8834004F456800146F6DFC6
:10013900E4800B010204081020408090021DE47E37
:10014900019360BCA3FF543F30E509541FFEE493BB
:10015900A360010ECF54C025E060A840B8E493A382
:10016900FAE493A3F8E493A3C8C582C8CAC583CAAD
:10017900F0A3C8C582C8CAC583CADFE9DEE780BE65
:0102430000BA
:00000001FF
