:100463007F381204C97F0C1204C97F061204C97FA6
:09047300011204C97F800204C9D2
:10043900C2A58F807F017E0012044AD2A77F057E64
:0104490000B2
:10044A00D3EF9400EE9400400F7DC77C01DCFEDD03
:08045A00FAEF1F70EB1E80E8B1
:010462002277
:0A04C900C2A7C2A6120439C2A7227E
:0A04D300C2A7D2A6120439C2A72264
:10029B005100022020202020202020202020202060
:1002AB0020202000510014333135303130343930B7
:1002BB003420575558494E005100252020202053FB
:1002CB00746F70706564212020202000510036204F
:1002DB002044697231202053706565643120200001
:1002EB0051004720204469723120205370656564AA
:1002FB0032202000510058202044697232202053B4
:10030B0070656564312020005100692020446972BA
:10031B003220205370656564322020004100132D7C
:0F032B0042007A003C420000004642007C00374E
:100006001204B2E4900085F0900085E0FFC39410DE
:10001600501774142FF582E43400F583E0FF1204C0
:10002600D3900085E004F080DF7B017A0079251209
:1000360003C7D2A420B50BC2A49000137434F030C9
:10004600B5FD20A23E20B30DC2A49000137439F072
:1000560020B33080FB20B70DC2A49000137435F096
:1000660020B72080FB20B60DC2A49000137430F098
:1000760020B61080FB20B40BC2A49000137433F09A
:1000860030B4FD900013E024D0700302011924FD62
:10009600700302013024FE605624FC602C240560A7
:1000A60003020148B2A230A2097B017A0079250237
:1000B6000145C2A390007AE0FFA3E0A3CFF0A3EF2F
:1000C600F07B017A0079368076900000E0FFA3E0AD
:1000D60090007CCF20A30CF0A3EFF07B017A00798F
:1000E60047805CF0A3EFF07B017A0079698050903D
:1000F600007AE0FFA3E0A3CF20A30CF0A3EFF07BF0
:10010600017A0079368038F0A3EFF07B017A007926
:1001160058802CC2A390007AE0FFA3E0A3CFF0A3FF
:10012600EFF07B017A0079368015D2A390007AE051
:10013600FFA3E0A3CFF0A3EFF07B017A007958127A
:1001460003C7900013742DF020A23320A322C2A16E
:1001560090007CE0FEA3E0FF1204A7D2A190007CF1
:10016600E0FEA3E0FFC374F49FFF74019EFE8008C7
:10017600A2A392A17FF47E011204A7020038A2A3D3
:0D018600B392A17FF47E011204A70200389D
:0C04B2001204631204DD1204BE02047C7C
:10047C00C2A27FC87E001204A7D2A2D2A37FC87EDC
:07048C00001204A7C2A32225
:0B03C700900086EBF0A3EAF0A3E9F041
:1003D2007FC01204C9E4900089F0900089E0FFC355
:1003E2009410501F900086E0FBA3E0FAA3E0F98F7F
:1003F2008275830012040CFF1204D3900089E0047A
:0A040200F080D77F647E0002044AF8
:1004930030313233343536373839414243444546B7
:0904DD00D288D2A8D2AFD2B2221B
:0404A3007F017E0057
:0B04A700EF1FAC0670011E4C70F62227
:0300030002019364
:10019300C0E0C083C082C0D075D000C001C002C01F
:0901A30003C004C005C006C0073A
:1001AC0090007EE4F07FBC7E021204A730B2030202
:1001BC0002847BE87A0320B213D3EB9400EA940018
:1001CC00400A1204A3EB1B70ED1A80EA20B2030262
:1001DC0002767A017BF430B213D3EB9400EA9400EC
:1001EC00400A1204A3EB1B70ED1A80EAE4FDE4F95B
:1001FC007A007B3C20B213D3EB9400EA9400400AC3
:10020C001204A3EB1B70ED1A80EA7A017BF430B276
:10021C0023D3EB9400EA9400401A7F0A7E00120468
:10022C00A790007EE004F0EB1B70011AE0D3941E43
:10023C0040DC8044747F2DF582E43400F583E0C308
:10024C0013F090007EE0C39408400E747F2DF5826D
:10025C00E43400F583E04480F090007EE4F009E99A
:10026C006408708C0DED64047084900081E0540F70
:08027C0090049393900013F02D
:10028400D007D006D005D004D003D002D001D0D0FE
:07029400D082D083D0E032DC
:0B04BE00D2B3D2B7D2B6D2B4D2B5226E
:0300000002033BBD
:0C033B00787FE4F6D8FD7581070203828C
:10040C00BB010CE58229F582E5833AF583E02250A5
:10041C0006E92582F8E622BBFE06E92582F8E222EF
:0D042C00E58229F582E5833AF583E4932209
:10034700020006E493A3F8E493A34003F68001F2C6
:1003570008DFF48029E493A3F85407240CC8C333B7
:10036700C4540F4420C8834004F456800146F6DF86
:10037700E4800B010204081020408090029BE47E79
:10038700019360BCA3FF543F30E509541FFEE4937B
:10039700A360010ECF54C025E060A840B8E493A342
:1003A700FAE493A3F8E493A3C8C582C8CAC583CA6D
:1003B700F0A3C8C582C8CAC583CADFE9DEE780BE25
:01033A0000C2
:00000001FF
